{
  "transactions": [
    {
      "hash": "0x887c3083f0f52559edb78b5e4fa89071adb4cf66952a5478f1153bbf743fba75",
      "transactionType": "CALL",
      "contractName": null,
      "contractAddress": "0x779877a7b0d9e8603169ddbd7836e478b4624789",
      "function": "transferAndCall(address,uint256,bytes)",
      "arguments": [
        "0x9DdfaCa8183c41ad55329BdeeD9F6A8d53168B1B",
        "1000000000000000000",
        "0xd0c67616c1e3b21ae3bebecd7bece8325c9f11dbbd602250a9a199f11b2cdb85"
      ],
      "transaction": {
        "from": "0x72c55736a856b9330f9698a9b0a552f701087c58",
        "to": "0x779877a7b0d9e8603169ddbd7836e478b4624789",
        "gas": "0x14cbb",
        "value": "0x0",
        "input": "0x4000aea00000000000000000000000009ddfaca8183c41ad55329bdeed9f6a8d53168b1b0000000000000000000000000000000000000000000000000de0b6b3a764000000000000000000000000000000000000000000000000000000000000000000600000000000000000000000000000000000000000000000000000000000000020d0c67616c1e3b21ae3bebecd7bece8325c9f11dbbd602250a9a199f11b2cdb85",
        "nonce": "0x2a5",
        "chainId": "0xaa36a7"
      },
      "additionalContracts": [],
      "isFixedGasLimit": false
    }
  ],
  "receipts": [
    {
      "status": "0x1",
      "cumulativeGasUsed": "0x13501b1",
      "logs": [
        {
          "address": "0x779877a7b0d9e8603169ddbd7836e478b4624789",
          "topics": [
            "0xddf252ad1be2c89b69c2b068fc378daa952ba7f163c4a11628f55a4df523b3ef",
            "0x00000000000000000000000072c55736a856b9330f9698a9b0a552f701087c58",
            "0x0000000000000000000000009ddfaca8183c41ad55329bdeed9f6a8d53168b1b"
          ],
          "data": "0x0000000000000000000000000000000000000000000000000de0b6b3a7640000",
          "blockHash": "0x6776896eecfbdc6df1545eb7e46301227866f56780e221c523650e459f99d1b6",
          "blockNumber": "0x638be4",
          "transactionHash": "0x887c3083f0f52559edb78b5e4fa89071adb4cf66952a5478f1153bbf743fba75",
          "transactionIndex": "0x5c",
          "logIndex": "0xa3",
          "removed": false
        },
        {
          "address": "0x779877a7b0d9e8603169ddbd7836e478b4624789",
          "topics": [
            "0xe19260aff97b920c7df27010903aeb9c8d2be5d310a2c67824cf3f15396e4c16",
            "0x00000000000000000000000072c55736a856b9330f9698a9b0a552f701087c58",
            "0x0000000000000000000000009ddfaca8183c41ad55329bdeed9f6a8d53168b1b"
          ],
          "data": "0x0000000000000000000000000000000000000000000000000de0b6b3a764000000000000000000000000000000000000000000000000000000000000000000400000000000000000000000000000000000000000000000000000000000000020d0c67616c1e3b21ae3bebecd7bece8325c9f11dbbd602250a9a199f11b2cdb85",
          "blockHash": "0x6776896eecfbdc6df1545eb7e46301227866f56780e221c523650e459f99d1b6",
          "blockNumber": "0x638be4",
          "transactionHash": "0x887c3083f0f52559edb78b5e4fa89071adb4cf66952a5478f1153bbf743fba75",
          "transactionIndex": "0x5c",
          "logIndex": "0xa4",
          "removed": false
        },
        {
          "address": "0x9ddfaca8183c41ad55329bdeed9f6a8d53168b1b",
          "topics": [
            "0x1ced9348ff549fceab2ac57cd3a9de38edaaab274b725ee82c23e8fc8c4eec7a",
            "0xd0c67616c1e3b21ae3bebecd7bece8325c9f11dbbd602250a9a199f11b2cdb85"
          ],
          "data": "0x000000000000000000000000000000000000000000000005340bb4f92db1e3e900000000000000000000000000000000000000000000000541ec6bacd515e3e9",
          "blockHash": "0x6776896eecfbdc6df1545eb7e46301227866f56780e221c523650e459f99d1b6",
          "blockNumber": "0x638be4",
          "transactionHash": "0x887c3083f0f52559edb78b5e4fa89071adb4cf66952a5478f1153bbf743fba75",
          "transactionIndex": "0x5c",
          "logIndex": "0xa5",
          "removed": false
        }
      ],
      "logsBloom": "0x00000004000000000002000000400000000000000020000000000002020000000000000000000000000000000000000000000000000000000000000000000000000000000000000000000008000000000000000000000000000020000020000008000000000000000000000000000000000000000000000000000010000040000000000000000000000000010000800000000020000000000000000000000000000000000000000000000000010000000000000000000000000004000000000000000002000000000000000000000100000000000000000100000000060000000010000000000000800000000000000000000000000000000000000000000000",
      "type": "0x2",
      "transactionHash": "0x887c3083f0f52559edb78b5e4fa89071adb4cf66952a5478f1153bbf743fba75",
      "transactionIndex": "0x5c",
      "blockHash": "0x6776896eecfbdc6df1545eb7e46301227866f56780e221c523650e459f99d1b6",
      "blockNumber": "0x638be4",
      "gasUsed": "0xf0e5",
      "effectiveGasPrice": "0x14eec434",
      "from": "0x72c55736a856b9330f9698a9b0a552f701087c58",
      "to": "0x779877a7b0d9e8603169ddbd7836e478b4624789",
      "contractAddress": null
    }
  ],
  "libraries": [],
  "pending": [],
  "returns": {},
  "timestamp": 1723982006,
  "chain": 11155111,
  "commit": "41e169f"
}