{
  "transactions": [
    {
      "hash": "0x9af18b6c3c1bf5f3b639ee9318659394af7ae4e215bca97acafdd95e3f92dc7e",
      "transactionType": "CALL",
      "contractName": null,
      "contractAddress": "0xc19dd260f21c6c96ee098b76b38688449b8ee88e",
      "function": "mintNft(string)",
      "arguments": [
        "https://ipfs.io/ipfs/QmWwFCd1JT2wXVGrBB6X1HEFHRsrFQXZaXWRC5gtVh1uw1?filename=shiba.json"
      ],
      "transaction": {
        "from": "0x72c55736a856b9330f9698a9b0a552f701087c58",
        "to": "0xc19dd260f21c6c96ee098b76b38688449b8ee88e",
        "gas": "0x3d623",
        "value": "0x0",
        "input": "0xda86f4a90000000000000000000000000000000000000000000000000000000000000020000000000000000000000000000000000000000000000000000000000000005768747470733a2f2f697066732e696f2f697066732f516d5777464364314a543277585647724242365831484546485273724651585a61585752433567745668317577313f66696c656e616d653d73686962612e6a736f6e000000000000000000",
        "nonce": "0x2ad",
        "chainId": "0xaa36a7"
      },
      "additionalContracts": [],
      "isFixedGasLimit": false
    }
  ],
  "receipts": [
    {
      "status": "0x1",
      "cumulativeGasUsed": "0x7443b2",
      "logs": [
        {
          "address": "0xc19dd260f21c6c96ee098b76b38688449b8ee88e",
          "topics": [
            "0xddf252ad1be2c89b69c2b068fc378daa952ba7f163c4a11628f55a4df523b3ef",
            "0x0000000000000000000000000000000000000000000000000000000000000000",
            "0x00000000000000000000000072c55736a856b9330f9698a9b0a552f701087c58",
            "0x0000000000000000000000000000000000000000000000000000000000000000"
          ],
          "data": "0x",
          "blockHash": "0x9c72be8f707933ff1811d5863ac7c05d2b8088520b1dc546e9dddb5f33afa4ec",
          "blockNumber": "0x6452a6",
          "transactionHash": "0x9af18b6c3c1bf5f3b639ee9318659394af7ae4e215bca97acafdd95e3f92dc7e",
          "transactionIndex": "0x2e",
          "logIndex": "0x76",
          "removed": false
        }
      ],
      "logsBloom": "0x00000000000000000002000000400000000000000000000000000000000000000000000000000000000000000000000000000000000000000000080000000004000000000000000000000008000000000000000000000000000000000000000000000000020000000000000000000800000000000000000000000010000000000000000000000000000000000000000000800000000000000000000000000000000000000000000000000000000000000000000000000000000000000000000000000002000000000000000000000100000000000000000000000000000020000000000000000000000000000000000000000000000000000000000000000000",
      "type": "0x2",
      "transactionHash": "0x9af18b6c3c1bf5f3b639ee9318659394af7ae4e215bca97acafdd95e3f92dc7e",
      "transactionIndex": "0x2e",
      "blockHash": "0x9c72be8f707933ff1811d5863ac7c05d2b8088520b1dc546e9dddb5f33afa4ec",
      "blockNumber": "0x6452a6",
      "gasUsed": "0x2c70e",
      "effectiveGasPrice": "0x2516fd9f0",
      "from": "0x72c55736a856b9330f9698a9b0a552f701087c58",
      "to": "0xc19dd260f21c6c96ee098b76b38688449b8ee88e",
      "contractAddress": null
    }
  ],
  "libraries": [],
  "pending": [],
  "returns": {},
  "timestamp": 1724674025,
  "chain": 11155111,
  "commit": "41e169f"
}